:100000000C942A000C943F000C943F000C943F0089
:100010000C943F000C943F000C943F000C943F0064
:100020000C943F000C943F000C943F000C943F0054
:100030000C943F000C943F000C943F000C943F0044
:100040000C943F000C943F000C943F000C943F0034
:100050000C943F0011241FBECFE5D8E0DEBFCDBF1A
:1000600010E0A0E6B0E0E0EAF6E002C005900D92F4
:10007000A83AB107D9F70E94FE020C944E030C94E3
:1000800000004130B1F5813099F0813030F082309C
:10009000D1F0833009F067C021C02AB381E090E03D
:1000A00002C0880F991F6A95E2F7282B2ABB089592
:1000B00027B381E090E002C0880F991F6A95E2F7AC
:1000C000282B27BB089524B381E090E002C0880F5D
:1000D000991F6A95E2F7282B24BB089521B381E08C
:1000E00090E002C0880F991F6A95E2F7282B21BB88
:1000F00008954423C1F5813099F0813028F0823091
:10010000D9F0833081F524C02AB381E090E002C0A9
:10011000880F991F6A95E2F7809582238ABB08951C
:1001200027B381E090E002C0880F991F6A95E2F73B
:100130008095822387BB089524B381E090E002C0BC
:10014000880F991F6A95E2F78095822384BB0895F2
:1001500021B381E090E002C0880F991F6A95E2F711
:100160008095822381BB08954130B1F5813099F0AB
:10017000813030F08230D1F0833009F067C021C087
:100180002BB381E090E002C0880F991F6A95E2F7D7
:10019000282B2BBB089528B381E090E002C0880F84
:1001A000991F6A95E2F7282B28BB089525B381E0B3
:1001B00090E002C0880F991F6A95E2F7282B25BBB3
:1001C000089522B381E090E002C0880F991F6A95DC
:1001D000E2F7282B22BB08954423C1F5813099F022
:1001E000813028F08230D9F0833081F524C02BB3E0
:1001F00081E090E002C0880F991F6A95E2F7809530
:1002000082238BBB089528B381E090E002C0880F61
:10021000991F6A95E2F78095822388BB089525B3DC
:1002200081E090E002C0880F991F6A95E2F78095FF
:10023000822385BB089522B381E090E002C0880F3D
:10024000991F6A95E2F78095822382BB08958130D9
:1002500051F0813030F0823041F0833079F080E02D
:10026000089589B303C086B301C083B390E002C090
:10027000959587956A95E2F78170089580B390E02F
:1002800002C0959587956A95E2F78170089581304F
:1002900049F0813028F0823039F0833041F406C0D3
:1002A0006ABB089567BB089564BB089561BB089558
:1002B000813049F0813028F0823039F0833041F4C8
:1002C00006C06BBB089568BB089565BB089562BB0B
:1002D0000895813051F0813030F0823041F0833028
:1002E00041F080E008958BB3089588B3089585B3F5
:1002F000089582B3089508950F931F93182F80E0F7
:1003000060E041E00E94B40080E061E040E00E94D3
:10031000B40083E0612F0E94580180E062E041E078
:100320000E94B40000ED17E0C8010197F1F780E0EA
:1003300062E040E00E94B400C8010197F1F71F910C
:100340000F910895883010F40E947C010895AF92B7
:10035000BF92CF92DF92EF92FF920F931F93DF93A2
:10036000CF93CDB7DEB72C970FB6F894DEBF0FBE94
:10037000CDBF6B017C01FE0131968AE0DF011D9249
:100380008A95E9F710E05F011DC0F501E10FF11D4D
:10039000FC87EB87C701B6012AE030E040E050E07F
:1003A0000E941103AB85BC856C931F5FC701B6012A
:1003B0002AE030E040E050E00E941103C901DA0178
:1003C0006C017D011C141D041E041F04F4F2012F96
:1003D0000150E02EFF24E7FCF094EA0CFB1C09C05E
:1003E000F7018081805D0E947C0101500894E10842
:1003F000F10807FFF5CF2C960FB6F894DEBF0FBEBD
:10040000CDBFCF91DF911F910F91FF90EF90DF90C3
:10041000CF90BF90AF9008951F93CF93DF93EC01DF
:1004200010E003C00E947C011F5FFE01E10FF11D7F
:1004300080818823B9F7DF91CF911F9108950F93A1
:100440001F93182F80E060E040E00E94B40080E03D
:1004500061E040E00E94B40083E0612F0E945801F7
:1004600080E062E041E00E94B40000ED17E0C801C6
:100470000197F1F780E062E040E00E94B400C8011B
:100480000197F1F71F910F91089581E00E941F02DB
:1004900008950F931F93CF93DF938B01880F880FDD
:1004A000880F805C0E941F02C0E0D0E0F801EC0FD2
:1004B000FD1F80810E947C012196C830D105B1F7D3
:1004C00080E80E941F02DF91CF911F910F91089544
:1004D000823040F4603130F48111605C862F806896
:1004E0000E941F0208950F931F9383E06FEF0E94F5
:1004F000470180E060E041E00E94410080E061E06F
:1005000041E00E94410080E062E041E00E94410041
:1005100084EF91E028EC30E0F9013197F1F7019791
:10052000D9F788E30E941F0200ED17E0C801019788
:10053000F1F78CE00E941F02C8010197F1F781E0FA
:100540000E941F0280E797E10197F1F786E00E9481
:100550001F02C8010197F1F71F910F910895AF9203
:10056000BF92DF92EF92FF920F931F93CF93DF938F
:10057000EE24C0E0D0E090E2A92E9EE4B92EDC2E5D
:1005800081E06C2F40E00E94B4008E0109591F4F9A
:1005900084E0F82E81E06F2D0E942701882311F45A
:1005A000F801E08081E06F2D0E9427018823D1F3BC
:1005B000C5010197F1F7F3940C5F1F4FF8E0FF16A8
:1005C00049F781E06D2D41E00E94B4002196C430CE
:1005D000D105A9F68E2DDF91CF911F910F91FF903C
:1005E000EF90DF90BF90AF90089581E06FE00E94A0
:1005F000470181E06FEF0E94580108950E94730245
:100600000E94F50280E690E00E940C0280E067E024
:1006100041E00E94410080E067E041E00E94B400B8
:10062000FFCF97FB092E05260ED057FD04D014D01E
:100630000AD0001C38F450954095309521953F4FD5
:100640004F4F5F4F0895F6F790958095709561959F
:100650007F4F8F4F9F4F0895A1E21A2EAA1BBB1BFD
:10066000FD010DC0AA1FBB1FEE1FFF1FA217B3077E
:10067000E407F50720F0A21BB30BE40BF50B661F94
:10068000771F881F991F1A9469F760957095809558
:1006900090959B01AC01BD01CF010895F894FFCF67
:1006A0005461686F6F6E000102032B0405062D076D
:1006B00008092A25003D2F0000001F09090F001816
:1006C00004021F000000000000001F0A0A0E0000C4
:1006D0001C141F04041C0000000002020E00000A8B
:0806E000150A040000000000EF
:00000001FF
