:100000000C942A000C9434000C9434000C9442029A
:100010000C9434000C9434000C9434000C94340090
:100020000C9434000C9434000C9434000C94340080
:100030000C9434000C9434000C9434000C94340070
:100040000C9434000C9434000C9434000C94340060
:100050000C94340011241FBECFE5D8E0DEBFCDBF25
:100060000E9433020C9468020C9400008FB78068E1
:100070008FBF08958FB78F778FBF0895813041F07C
:10008000813018F0823059F407C08BB78F7B02C0E3
:100090008BB78F778BBF08958BB78F7D8BBF0895FC
:1000A000813029F1813020F0823009F04DC03EC00E
:1000B000613071F0613030F0623069F0633009F026
:1000C00043C00FC085B78E7F85BF85B782602CC0C7
:1000D00085B7826008C085B78D7F85BF85B78E7F65
:1000E00023C085B78D7F85BF85B781601DC0613016
:1000F00051F0613028F0623061F0633029F50FC0B3
:1001000085B78B7F02C085B7846085BF85B788605F
:100110000BC085B78B7F85BF85B7877F05C085B747
:10012000877F85BF85B7846085BF0895623060F49E
:10013000662319F0613041F404C084B78F7B84BF1B
:10014000089584B7806484BF0895813059F0813068
:1001500018F08230C1F40FC08BB780648BBF83E08E
:1001600062E005C08BB780688BBF83E063E040E04E
:100170000E94C40008958BB780628BBF81E062E06B
:1001800040E00E94C40008954130B1F5813099F0FB
:10019000813030F08230D1F0833009F067C021C067
:1001A0002AB381E090E002C0880F991F6A95E2F7B8
:1001B000282B2ABB089527B381E090E002C0880F66
:1001C000991F6A95E2F7282B27BB089524B381E095
:1001D00090E002C0880F991F6A95E2F7282B24BB94
:1001E000089521B381E090E002C0880F991F6A95BD
:1001F000E2F7282B21BB08954423C1F5813099F003
:10020000813028F08230D9F0833081F524C02AB3C0
:1002100081E090E002C0880F991F6A95E2F780950F
:1002200082238ABB089527B381E090E002C0880F43
:10023000991F6A95E2F78095822387BB089524B3BE
:1002400081E090E002C0880F991F6A95E2F78095DF
:10025000822384BB089521B381E090E002C0880F1F
:10026000991F6A95E2F78095822381BB08954130FA
:10027000B1F5813099F0813030F08230D1F08330A7
:1002800009F067C021C02BB381E090E002C0880F65
:10029000991F6A95E2F7282B2BBB089528B381E0BC
:1002A00090E002C0880F991F6A95E2F7282B28BBBF
:1002B000089525B381E090E002C0880F991F6A95E8
:1002C000E2F7282B25BB089522B381E090E002C01D
:1002D000880F991F6A95E2F7282B22BB08954423C3
:1002E000C1F5813099F0813028F08230D9F0833027
:1002F00081F524C02BB381E090E002C0880F991FE4
:100300006A95E2F7809582238BBB089528B381E03C
:1003100090E002C0880F991F6A95E2F780958223CA
:1003200088BB089525B381E090E002C0880F991F33
:100330006A95E2F78095822385BB089522B381E018
:1003400090E002C0880F991F6A95E2F7809582239A
:1003500082BB0895813091F0813028F08230C9F05D
:10036000833061F521C02BB381E090E002C0880F9B
:10037000991F6A95E2F728272BBB089528B381E0DF
:1003800090E002C0880F991F6A95E2F7282728BBE2
:10039000089525B381E090E002C0880F991F6A9507
:1003A000E2F7282725BB089522B381E090E002C040
:1003B000880F991F6A95E2F7282722BB089581309C
:1003C00051F0813030F0823041F0833079F080E0BC
:1003D000089589B303C086B301C083B390E002C01F
:1003E000959587956A95E2F78170089580B390E0BE
:1003F00002C0959587956A95E2F7817008958130DE
:1004000049F0813028F0823039F0833041F406C061
:100410006ABB089567BB089564BB089561BB0895E6
:10042000813049F0813028F0823039F0833041F456
:1004300006C06BBB089568BB089565BB089562BB99
:100440000895813051F0813030F0823041F08330B6
:1004500041F080E008958BB3089588B3089585B383
:10046000089582B3089582E00E94A50082E060E0D2
:100470000E94500081E062E041E00E9437010E944A
:100480003600FFCF1F920F920FB60F9211242F93B9
:100490003F934F935F936F937F938F939F93AF930C
:1004A000BF93EF93FF9380E060E00E94AA01FF9169
:1004B000EF91BF91AF919F918F917F916F915F91DC
:1004C0004F913F912F910F900FBE0F901F90189555
:0404D000F894FFCFCE
:00000001FF
