:100000000C942A000C943C000C943C000C94BC080A
:100010000C9470040C941F040C94C1040C943C00C8
:100020000C943C000C943C000C94CE030C947D0387
:100030000C943C000C9489010C943C000C9433010A
:100040000C940D070C943C000C943C000C943C0068
:100050000C943C0011241FBECFE5D8E0DEBFCDBF1D
:1000600010E0A0E6B0E001C01D92AE3BB107E1F7A1
:100070000E947F080C9436090C940000539A549AFD
:100080008AB18F718AB983E389B908955D9BFECFE8
:100090008CB908955F9BFECF8CB10895FC0104C01C
:1000A0005D9BFECF8CB9319680818823C9F7089576
:1000B000AF92BF92CF92DF92EF92FF920F93DF93B6
:1000C000CF93CDB7DEB72C970FB6F894DEBF0FBE37
:1000D000CDBF6B017C01FE0131968AE0DF011D92EC
:1000E0008A95E9F700E05F011DC0F501E00FF11D01
:1000F000FC87EB87C701B6012AE030E040E050E022
:100100000E94F908AB85BC856C930F5FC701B601EF
:100110002AE030E040E050E00E94F908C901DA012D
:100120006C017D011C141D041E041F04F4F2902FA9
:100130009150E92FFF27E7FDF095EA0DFB1D07C061
:1001400080815D9BFECF805D8CB99150319797FF88
:10015000F7CF2C960FB6F894DEBF0FBECDBFCF9170
:10016000DF910F91FF90EF90DF90CF90BF90AF9015
:1001700008950F931F93CF93DF93EC01FC0180E070
:1001800090E0A0E0B0E010C08F015F9BFECF2CB1EB
:1001900020832A3019F031962D3019F4F80110829D
:1001A00008C00196A11DB11D84179507A607B707C2
:1001B00058F3C40FD51F219780E38883DF91CF9137
:1001C0001F910F910895813039F0813018F08230FD
:1001D00031F404C0569A0895579A0895559A08958F
:1001E000813039F0813018F0823031F404C05698F3
:1001F000089557980895559808950F931F938C016B
:1002000030936D0020936C00909371008093700088
:10021000409368005093690060936A0070936B008C
:1002200080E00E94E300F80180818CB98091660033
:1002300090916700019690936700809366001F91EC
:100240000F91089530936F0020936E00909371008A
:100250008093700040936200509363006093640049
:100260007093650008951F920F920FB60F9211249C
:100270002F933F934F935F936F937F938F939F93AE
:10028000AF93BF93EF93FF93E0916C00F0916D00FB
:10029000309709F0099560916600709167009B01A5
:1002A00040E050E08091680090916900A0916A0060
:1002B000B0916B00281739074A075B07A8F4E09153
:1002C0007000F0917100E60FF71FE081EE2341F01E
:1002D000ECB96F5F7F4F709367006093660008C052
:1002E00080E00E94F00004C0109267001092660047
:1002F000FF91EF91BF91AF919F918F917F916F91FE
:100300005F914F913F912F910F900FBE0F901F90D3
:1003100018951F920F920FB60F9211242F933F93AF
:100320004F935F936F937F938F939F93AF93BF93FD
:10033000EF93FF9380916C0090916D00892B29F0D1
:10034000E0916E00F0916F000995609160007091EE
:1003500061009B0140E050E0809162009091630059
:10036000A0916400B0916500281739074A075B0720
:1003700078F48CB1E0917200F0917300E60FF71FF2
:1003800080836F5F7F4F709361006093600004C053
:100390001092610010926000FF91EF91BF91AF91B8
:1003A0009F918F917F916F915F914F913F912F918D
:1003B0000F900FBE0F901F90189583B7886083BF72
:1003C00083B7806483BF83B78F7E83BF83B7806228
:1003D00083BF80E88FBD82E48EBD81E792E097BD48
:1003E00086BD089526B537B5C9010895882319F04B
:1003F000813041F404C08EB58F7B8EBD08958EB5DB
:1004000080648EBD08958130E9F0813020F0823023
:1004100009F059C041C0613049F0613020F06230CC
:1004200009F051C009C089B78E7F02C089B78160C9
:1004300089BF89B78D7F3FC089B78E7F89BF89B754
:10044000826039C0613051F0613028F0623091F043
:100450006330C9F51BC089B78F7D1AC089B78F7DFE
:1004600089BF89B78F7E89BF89B7877F89BF89B7E1
:10047000846021C089B78F7D89BF89B7806189BFBA
:1004800089B7877F89BF89B78B7F15C089B780629D
:1004900089BF89B78F7EF3CF613041F0613018F0AA
:1004A000623089F40AC089B78F7B02C089B7806443
:1004B00089BF89B78F7789BF089589B78F7B89BF37
:1004C00089B7806889BF0895813099F0813018F02C
:1004D000823089F523C0662329F450938500409328
:1004E00084000895613039F5509387004093860069
:1004F0000895662329F450938D0040938C0008954D
:10050000613029F450938F0040938E00089562303B
:1005100091F450939100409390000895662329F43C
:1005200050938900409388000895613021F45093DE
:100530008B0040938A000895813039F0813018F0A3
:10054000823039F405C062BF08957DBD6CBD089549
:1005500064BD0895813039F0813018F0823039F46B
:1005600005C06CBF08957BBD6ABD089563BD089545
:10057000813049F0813028F0823041F020E030E0D5
:1005800008C082B704C02CB53DB503C084B5282F80
:1005900030E0C9010895813051F0813018F0823087
:1005A00079F40AC083B7887F826083BF08958EB5CF
:1005B000887F82608EBD089585B5887F826085BD05
:1005C00008958130D9F0813020F0823009F043C0A5
:1005D0002CC0CB01A0E0B0E08093980090939900EC
:1005E000A0939A00B0939B003093870020938600DD
:1005F00080E0BA010E94AA0280E014C0CB01A0E012
:10060000B0E08093980090939900A0939A00B093E3
:100610009B0030938F0020938E0081E0BA010E94EE
:10062000AA0281E00E94CB020895CB01A0E0B0E0D5
:100630008093940090939500A0939600B0939700B8
:1006400030938B0020938A0082E0BA010E94AA02B4
:1006500082E00E94CB0208958130B1F0813018F021
:100660008230B9F524C0CB01A0E0B0E080939800BF
:1006700090939900A0939A00B0939B0050938500AB
:100680004093840080E010C0CB01A0E0B0E08093F4
:10069000980090939900A0939A00B0939B00509378
:1006A0008D0040938C0081E00E94CB020895CB0125
:1006B000A0E0B0E08093940090939500A093960002
:1006C000B0939700509389004093880082E00E9485
:1006D000CB020895813049F0813018F0823061F406
:1006E00008C083B7887F83BF089583B7887F8EBD96
:1006F000089585B5887F85BD08951F920F920FB626
:100700000F9211242F933F934F935F936F937F9397
:100710008F939F93AF93BF93EF93FF93809180004C
:1007200090918100A0918200B09183000196A11D5B
:10073000B11D8093800090938100A0938200B093BC
:100740008300209198003091990040919A00509137
:100750009B0082179307A407B50779F4E091840002
:10076000F0918500309749F0099510928000109221
:1007700081001092820010928300FF91EF91BF914F
:10078000AF919F918F917F916F915F914F913F9129
:100790002F910F900FBE0F901F9018951F920F92E0
:1007A0000FB60F9211242F933F934F935F936F9344
:1007B0007F938F939F93AF93BF93EF93FF9380911A
:1007C0007C0090917D00A0917E00B0917F00019609
:1007D000A11DB11D80937C0090937D00A0937E00AD
:1007E000B0937F00209198003091990040919A0039
:1007F00050919B0082179307A407B50779F4E09105
:100800008600F0918700309749F0099510927C009E
:1008100010927D0010927E0010927F00FF91EF9168
:10082000BF91AF919F918F917F916F915F914F9108
:100830003F912F910F900FBE0F901F9018951F9210
:100840000F920FB60F9211242F933F934F935F9304
:100850006F937F938F939F93AF93BF93EF93FF9388
:100860008091780090917900A0917A00B0917B00FE
:100870000196A11DB11D8093780090937900A093FB
:100880007A00B0937B0020919400309195004091C4
:1008900096005091970082179307A407B50779F443
:1008A000E0918800F0918900309749F00995109205
:1008B00078001092790010927A0010927B00FF91DC
:1008C000EF91BF91AF919F918F917F916F915F91C8
:1008D0004F913F912F910F900FBE0F901F90189541
:1008E0001F920F920FB60F9211242F933F934F93A5
:1008F0005F936F937F938F939F93AF93BF93EF9388
:10090000FF938091740090917500A0917600B09152
:1009100077000196A11DB11D80937400909375001E
:10092000A0937600B09377002091940030919500C9
:10093000409196005091970082179307A407B5073E
:1009400079F4E0918A00F0918B00309749F0099595
:100950001092740010927500109276001092770039
:10096000FF91EF91BF91AF919F918F917F916F9187
:100970005F914F913F912F910F900FBE0F901F905D
:1009800018951F920F920FB60F9211242F933F9339
:100990004F935F936F937F938F939F93AF93BF9387
:1009A000EF93FF93E0919000F09191000995FF91F2
:1009B000EF91BF91AF919F918F917F916F915F91D7
:1009C0004F913F912F910F900FBE0F901F90189550
:1009D0008FB780688FBF08958FB78F778FBF0895C7
:1009E000813041F0813018F0823059F407C08BB764
:1009F0008F7B02C08BB78F778BBF08958BB78F7DAE
:100A00008BBF0895813029F1813020F0823009F0C8
:100A10004DC03EC0613071F0613030F0623069F03D
:100A2000633009F043C00FC085B78E7F85BF85B79F
:100A300082602CC085B7826008C085B78D7F85BF76
:100A400085B78E7F23C085B78D7F85BF85B78160D1
:100A50001DC0613051F0613028F0623061F06330C8
:100A600029F50FC085B78B7F02C085B7846085BF2D
:100A700085B788600BC085B78B7F85BF85B7877FBB
:100A800005C085B7877F85BF85B7846085BF08951A
:100A9000623060F4662319F0613041F404C084B719
:100AA0008F7B84BF089584B7806484BF08958130AC
:100AB00059F0813018F08230C1F40FC08BB78064D8
:100AC0008BBF83E062E005C08BB780688BBF83E09B
:100AD00063E040E00E94760508958BB780628BBF8B
:100AE00081E062E040E00E94760508954130B1F572
:100AF000813099F0813030F08230D1F0833009F0CC
:100B000067C021C02AB381E090E002C0880F991F1E
:100B10006A95E2F7282B2ABB089527B381E090E07D
:100B200002C0880F991F6A95E2F7282B27BB08950A
:100B300024B381E090E002C0880F991F6A95E2F724
:100B4000282B24BB089521B381E090E002C0880FD8
:100B5000991F6A95E2F7282B21BB08954423C1F51C
:100B6000813099F0813028F08230D9F0833081F5DE
:100B700024C02AB381E090E002C0880F991F6A95D3
:100B8000E2F7809582238ABB089527B381E090E045
:100B900002C0880F991F6A95E2F78095822387BB70
:100BA000089524B381E090E002C0880F991F6A95F0
:100BB000E2F78095822384BB089521B381E090E021
:100BC00002C0880F991F6A95E2F78095822381BB46
:100BD00008954130B1F5813099F0813030F08230A4
:100BE000D1F0833009F067C021C02BB381E090E0E1
:100BF00002C0880F991F6A95E2F7282B2BBB089536
:100C000028B381E090E002C0880F991F6A95E2F74F
:100C1000282B28BB089525B381E090E002C0880FFF
:100C2000991F6A95E2F7282B25BB089522B381E02E
:100C300090E002C0880F991F6A95E2F7282B22BB2B
:100C400008954423C1F5813099F0813028F0823035
:100C5000D9F0833081F524C02BB381E090E002C04D
:100C6000880F991F6A95E2F7809582238BBB0895C0
:100C700028B381E090E002C0880F991F6A95E2F7DF
:100C80008095822388BB089525B381E090E002C05F
:100C9000880F991F6A95E2F78095822385BB089596
:100CA00022B381E090E002C0880F991F6A95E2F7B5
:100CB0008095822382BB0895813091F0813028F0A5
:100CC0008230C9F0833061F521C02BB381E090E020
:100CD00002C0880F991F6A95E2F728272BBB089559
:100CE00028B381E090E002C0880F991F6A95E2F76F
:100CF000282728BB089525B381E090E002C0880F23
:100D0000991F6A95E2F7282725BB089522B381E051
:100D100090E002C0880F991F6A95E2F7282722BB4E
:100D20000895813051F0813030F0823041F08330CD
:100D300079F080E0089589B303C086B301C083B31E
:100D400090E002C0959587956A95E2F781700895C5
:100D500080B390E002C0959587956A95E2F781701F
:100D60000895813049F0813028F0823039F08330A5
:100D700041F406C06ABB089567BB089564BB08953B
:100D800061BB0895813049F0813028F0823039F01C
:100D9000833041F406C06BBB089568BB089565BB02
:100DA000089562BB0895813051F0813030F0823077
:100DB00041F0833041F080E008958BB3089588B30B
:100DC000089585B3089582B308953F983E9A3D985B
:100DD00086B1887F836086B93598339A379A0895AB
:100DE00097B18770907E892B87B9369A349BFECF56
:100DF000349A24B135B1C901089597B18770907EB6
:100E0000892B87B9369A089524B135B1C90108955F
:100E100090939D0080939C0008951F920F920FB6AF
:100E20000F9211242F933F934F935F936F937F9370
:100E30008F939F93AF93BF93EF93FF93E0919C00A9
:100E4000F0919D000995FF91EF91BF91AF919F9116
:100E50008F917F916F915F914F913F912F910F9063
:100E60000FBE0F901F9018950F931F93182F80E0BF
:100E700060E041E00E94E90580E061E040E00E941E
:100E8000E90582E0612F0E94C20680E062E041E055
:100E90000E94E90500ED17E0C8010197F1F780E035
:100EA00062E040E00E94E905C8010197F1F71F9157
:100EB0000F910895883010F40E9434070895AF927E
:100EC000BF92CF92DF92EF92FF920F931F93DF9327
:100ED000CF93CDB7DEB72C970FB6F894DEBF0FBE19
:100EE000CDBF6B017C01FE0131968AE0DF011D92CE
:100EF0008A95E9F710E05F011DC0F501E10FF11DD2
:100F0000FC87EB87C701B6012AE030E040E050E003
:100F10000E94F908AB85BC856C931F5FC701B601C1
:100F20002AE030E040E050E00E94F908C901DA010F
:100F30006C017D011C141D041E041F04F4F2012F1A
:100F40000150E02EFF24E7FCF094EA0CFB1C09C0E2
:100F5000F7018081805D0E94340701500894E10808
:100F6000F10807FFF5CF2C960FB6F894DEBF0FBE41
:100F7000CDBFCF91DF911F910F91FF90EF90DF9048
:100F8000CF90BF90AF9008951F93CF93DF93EC0164
:100F900010E003C00E9434071F5FFE01E10FF11D46
:100FA00080818823B9F7DF91CF911F9108950F9326
:100FB0001F93182F80E060E040E00E94E90580E088
:100FC00061E040E00E94E90582E0612F0E94C206D4
:100FD00080E062E041E00E94E90500ED17E0C80111
:100FE0000197F1F780E062E040E00E94E905C80166
:100FF0000197F1F71F910F910895843161F08531C8
:1010000018F4803189F405C0883139F08C3161F4ED
:1010100008C080E103C084E101C088E10E94D707D5
:1010200008958CE10E94D707089581E00E94D707B8
:1010300008950F931F93CF93DF938B01880F880F31
:10104000880F805C0E94D707C0E0D0E0F801EC0F69
:10105000FD1F80810E9434072196C830D105B1F769
:1010600080E80E94D707DF91CF911F910F910895DB
:10107000823040F4603130F48111605C862F8068EA
:101080000E94D70708950F931F9382E06FEF0E948D
:10109000B10680E060E041E00E94760580E061E01A
:1010A00041E00E94760580E062E041E00E94760522
:1010B00084EF91E028EC30E0F9013197F1F70197E6
:1010C000D9F788E30E94D70700ED17E0C801019720
:1010D000F1F78EE00E94D707C8010197F1F781E090
:1010E0000E94D70780E797E10197F1F786E00E9419
:1010F000D707C8010197F1F71F910F91089582E07A
:101100000E94570582E060E00E94020581E062E0F3
:1011100041E00E94E9050E9443080E943E000E94AF
:10112000E80480919200803150F40E944A000E94AD
:101130003407809192008F5F80939200F2CF8132CA
:10114000A0F481E0609193000E9438080E944A0058
:101150000E943407809192008F5F8093920080916B
:1011600093008F5F80939300DCCF0E94150810924C
:10117000920010929300D5CF1F920F920FB60F924C
:1011800011242F933F934F935F936F937F938F938C
:101190009F93AF93BF93EF93FF9380919200882327
:1011A00071F080E10E94FD0780E20E94340780E137
:1011B0000E94FD078091920081508093920080915F
:1011C0009200813128F080919300815080939300A8
:1011D000FF91EF91BF91AF919F918F917F916F910F
:1011E0005F914F913F912F910F900FBE0F901F90E5
:1011F000189597FB092E05260ED057FD04D014D064
:101200000AD0001C38F450954095309521953F4FF9
:101210004F4F5F4F0895F6F79095809570956195C3
:101220007F4F8F4F9F4F0895A1E21A2EAA1BBB1B21
:10123000FD010DC0AA1FBB1FEE1FFF1FA217B307A2
:10124000E407F50720F0A21BB30BE40BF50B661FB8
:10125000771F881F991F1A9469F76095709580957C
:1012600090959B01AC01BD01CF010895F894FFCF8B
:00000001FF
