:100000000C942A000C9447000C9447000C94470071
:100010000C94DC020C948B020C942D030C9447007E
:100020000C9447000C9447000C943A020C94E9019C
:100030000C9447000C9447000C9447000C94470024
:100040000C9479050C9447000C9447000C944700DD
:100050000C94470011241FBECFE5D8E0DEBFCDBF12
:1000600010E0A0E6B0E0E0E8FFE002C005900D92ED
:10007000AA36B107D9F710E0AAE6B0E001C01D9298
:10008000AE39B107E1F70E94DD060C94BE070C946F
:10009000000083B7886083BF83B7806483BF83B762
:1000A0008F7E83BF83B7806283BF80E88FBD82E489
:1000B0008EBD81E792E097BD86BD089526B537B520
:1000C000C9010895882319F0813041F404C08EB528
:1000D0008F7B8EBD08958EB580648EBD089581306E
:1000E000E9F0813020F0823009F059C041C0613020
:1000F00049F0613020F0623009F051C009C089B781
:100100008E7F02C089B7816089BF89B78D7F3FC06C
:1001100089B78E7F89BF89B7826039C0613051F05D
:10012000613028F0623091F06330C9F51BC089B7A7
:100130008F7D1AC089B78F7D89BF89B78F7E89BFB0
:1001400089B7877F89BF89B7846021C089B78F7DD0
:1001500089BF89B7806189BF89B7877F89BF89B720
:100160008B7F15C089B7806289BF89B78F7EF3CF37
:10017000613041F0613018F0623089F40AC089B70B
:100180008F7B02C089B7806489BF89B78F7789BFA9
:10019000089589B78F7B89BF89B7806889BF089523
:1001A000813099F0813018F0823089F523C06623C0
:1001B00029F450937B0040937A000895613039F51B
:1001C00050937D0040937C000895662329F450935A
:1001D0008300409382000895613029F45093850094
:1001E000409384000895623091F4509387004093C7
:1001F00086000895662329F450937F0040937E0083
:100200000895613021F45093810040938000089557
:10021000813039F0813018F0823039F405C062BF86
:1002200008957DBD6CBD089564BD0895813039F099
:10023000813018F0823039F405C06CBF08957BBD61
:100240006ABD089563BD0895813049F0813028F07A
:10025000823041F020E030E008C082B704C02CB505
:100260003DB503C084B5282F30E0C9010895813021
:1002700051F0813018F0823079F40AC083B7887F5A
:10028000826083BF08958EB5887F82608EBD089599
:1002900085B5887F826085BD08958130D9F0813031
:1002A00020F0823009F043C02CC0CB01A0E0B0E0C8
:1002B0008093940090939500A0939600B09397003C
:1002C00030937D0020937C0080E0BA010E941601EB
:1002D00080E014C0CB01A0E0B0E080939400909344
:1002E0009500A0939600B0939700309385002093DB
:1002F000840081E0BA010E94160181E00E9437016A
:100300000895CB01A0E0B0E080939000909391001D
:10031000A0939200B09393003093810020938000CB
:1003200082E0BA010E94160182E00E94370108951E
:100330008130B1F0813018F08230B9F524C0CB01A2
:10034000A0E0B0E08093940090939500A093960075
:10035000B093970050937B0040937A0080E010C0E8
:10036000CB01A0E0B0E08093940090939500A0931F
:100370009600B0939700509383004093820081E0F1
:100380000E9437010895CB01A0E0B0E08093900077
:1003900090939100A0939200B093930050937F00AC
:1003A00040937E0082E00E9437010895813049F039
:1003B000813018F0823061F408C083B7887F83BF32
:1003C000089583B7887F8EBD089585B5887F85BDE4
:1003D00008951F920F920FB60F9211242F933F93FF
:1003E0004F935F936F937F938F939F93AF93BF933D
:1003F000EF93FF938091760090917700A091780021
:10040000B09179000196A11DB11D80937600909363
:100410007700A0937800B0937900209194003091F8
:100420009500409196005091970082179307A4077A
:10043000B50779F4E0917A00F0917B00309749F0AC
:100440000995109276001092770010927800109221
:100450007900FF91EF91BF91AF919F918F917F9123
:100460006F915F914F913F912F910F900FBE0F9021
:100470001F9018951F920F920FB60F9211242F9371
:100480003F934F935F936F937F938F939F93AF931C
:10049000BF93EF93FF938091720090917300A091AE
:1004A0007400B09175000196A11DB11D809372007A
:1004B00090937300A0937400B09375002091940002
:1004C00030919500409196005091970082179307C4
:1004D000A407B50779F4E0917C00F0917D00309796
:1004E00049F00995109272001092730010927400F6
:1004F00010927500FF91EF91BF91AF919F918F91F5
:100500007F916F915F914F913F912F910F900FBE0F
:100510000F901F9018951F920F920FB60F921124F3
:100520002F933F934F935F936F937F938F939F93FB
:10053000AF93BF93EF93FF9380916E0090916F0004
:10054000A0917000B09171000196A11DB11D809322
:100550006E0090936F00A0937000B0937100209193
:100560009000309191004091920050919300821739
:100570009307A407B50779F4E0917E00F0917F001E
:10058000309749F0099510926E0010926F0010920A
:10059000700010927100FF91EF91BF91AF919F9108
:1005A0008F917F916F915F914F913F912F910F901C
:1005B0000FBE0F901F9018951F920F920FB60F92BB
:1005C00011242F933F934F935F936F937F938F9358
:1005D0009F93AF93BF93EF93FF9380916A009091A5
:1005E0006B00A0916C00B0916D000196A11DB11D32
:1005F00080936A0090936B00A0936C00B0936D00A1
:100600002091900030919100409192005091930080
:1006100082179307A407B50779F4E0918000F09161
:100620008100309749F0099510926A0010926B0092
:1006300010926C0010926D00FF91EF91BF91AF91FD
:100640009F918F917F916F915F914F913F912F91EA
:100650000F900FBE0F901F9018951F920F920FB61C
:100660000F9211242F933F934F935F936F937F9338
:100670008F939F93AF93BF93EF93FF93E091860087
:10068000F09187000995FF91EF91BF91AF919F91F4
:100690008F917F916F915F914F913F912F910F902B
:1006A0000FBE0F901F9018958FB780688FBF089569
:1006B0008FB78F778FBF0895813041F0813018F068
:1006C000823059F407C08BB78F7B02C08BB78F770E
:1006D0008BBF08958BB78F7D8BBF0895813029F133
:1006E000813020F0823009F04DC03EC0613071F0A1
:1006F000613030F0623069F0633009F043C00FC000
:1007000085B78E7F85BF85B782602CC085B7826034
:1007100008C085B78D7F85BF85B78E7F23C085B71D
:100720008D7F85BF85B781601DC0613051F061301C
:1007300028F0623061F0633029F50FC085B78B7FF8
:1007400002C085B7846085BF85B788600BC085B758
:100750008B7F85BF85B7877F05C085B7877F85BFBE
:1007600085B7846085BF0895623060F4662319F010
:10077000613041F404C084B78F7B84BF089584B78F
:10078000806484BF0895813059F0813018F0823040
:10079000C1F40FC08BB780648BBF83E062E005C0FB
:1007A0008BB780688BBF83E063E040E00E94E20388
:1007B00008958BB780628BBF81E062E040E00E94C9
:1007C000E20308954130B1F5813099F0813030F085
:1007D0008230D1F0833009F067C021C02AB381E0B4
:1007E00090E002C0880F991F6A95E2F7282B2ABB78
:1007F000089527B381E090E002C0880F991F6A95A1
:10080000E2F7282B27BB089524B381E090E002C0D3
:10081000880F991F6A95E2F7282B24BB089521B30E
:1008200081E090E002C0880F991F6A95E2F7282BBB
:1008300021BB08954423C1F5813099F0813028F01F
:100840008230D9F0833081F524C02AB381E090E072
:1008500002C0880F991F6A95E2F7809582238ABBB0
:10086000089527B381E090E002C0880F991F6A9530
:10087000E2F78095822387BB089524B381E090E05E
:1008800002C0880F991F6A95E2F78095822384BB86
:10089000089521B381E090E002C0880F991F6A9506
:1008A000E2F78095822381BB08954130B1F5813014
:1008B00099F0813030F08230D1F0833009F067C098
:1008C00021C02BB381E090E002C0880F991F6A9588
:1008D000E2F7282B2BBB089528B381E090E002C0FB
:1008E000880F991F6A95E2F7282B28BB089525B336
:1008F00081E090E002C0880F991F6A95E2F7282BEB
:1009000025BB089522B381E090E002C0880F991FB3
:100910006A95E2F7282B22BB08954423C1F5813064
:1009200099F0813028F08230D9F0833081F524C0ED
:100930002BB381E090E002C0880F991F6A95E2F71F
:10094000809582238BBB089528B381E090E002C09C
:10095000880F991F6A95E2F78095822388BB0895D6
:1009600025B381E090E002C0880F991F6A95E2F7F5
:100970008095822385BB089522B381E090E002C078
:10098000880F991F6A95E2F78095822382BB0895AC
:10099000813091F0813028F08230C9F0833061F5E8
:1009A00021C02BB381E090E002C0880F991F6A95A7
:1009B000E2F728272BBB089528B381E090E002C01E
:1009C000880F991F6A95E2F7282728BB089525B359
:1009D00081E090E002C0880F991F6A95E2F728270E
:1009E00025BB089522B381E090E002C0880F991FD3
:1009F0006A95E2F7282722BB0895813051F08130B3
:100A000030F0823041F0833079F080E0089589B38E
:100A100003C086B301C083B390E002C0959587956B
:100A20006A95E2F78170089580B390E002C09595D1
:100A300087956A95E2F781700895813049F0813099
:100A400028F0823039F0833041F406C06ABB089543
:100A500067BB089564BB089561BB0895813049F078
:100A6000813028F0823039F0833041F406C06BBB0E
:100A7000089568BB089565BB089562BB08958130F1
:100A800051F0813030F0823041F0833041F080E02D
:100A900008958BB3089588B3089585B3089582B3FC
:100AA00008953F983E9A3D9886B1887F836086B9C5
:100AB0003598339A379A089597B18770907E892B2D
:100AC00087B9369A349BFECF349A24B135B1C90127
:100AD000089597B18770907E892B87B9369A0895CB
:100AE00024B135B1C901089590939900809398007D
:100AF00008951F920F920FB60F9211242F933F93D8
:100B00004F935F936F937F938F939F93AF93BF9315
:100B1000EF93FF93E0919800F09199000995FF9170
:100B2000EF91BF91AF919F918F917F916F915F9165
:100B30004F913F912F910F900FBE0F901F901895DE
:100B40000F931F93182F80E060E041E00E9455044E
:100B500080E061E040E00E94550482E0612F0E9445
:100B60002E0580E062E041E00E94550400ED17E0B0
:100B7000C8010197F1F780E062E040E00E9455046F
:100B8000C8010197F1F71F910F910895883010F473
:100B90000E94A0050895AF92BF92CF92DF92EF928C
:100BA000FF920F931F93DF93CF93CDB7DEB72C97B0
:100BB0000FB6F894DEBF0FBECDBF6B017C01FE0106
:100BC00031968AE0DF011D928A95E9F710E05F0116
:100BD0001DC0F501E10FF11DFC87EB87C701B601D0
:100BE0002AE030E040E050E00E948107AB85BC8500
:100BF0006C931F5FC701B6012AE030E040E050E08F
:100C00000E948107C901DA016C017D011C141D04D9
:100C10001E041F04F4F2012F0150E02EFF24E7FC14
:100C2000F094EA0CFB1C09C0F7018081805D0E94F2
:100C3000A00501500894E108F10807FFF5CF2C96B4
:100C40000FB6F894DEBF0FBECDBFCF91DF911F91DD
:100C50000F91FF90EF90DF90CF90BF90AF900895ED
:100C60001F93CF93DF93EC0110E003C00E94A00517
:100C70001F5FFE01E10FF11D80818823B9F7DF912D
:100C8000CF911F9108950F931F93182F80E060E07C
:100C900040E00E94550480E061E040E00E9455047D
:100CA00082E0612F0E942E0580E062E041E00E9418
:100CB000550400ED17E0C8010197F1F780E062E00C
:100CC00040E00E945504C8010197F1F71F910F9170
:100CD0000895803119F40E9443060895843111F477
:100CE0000E944306089581E00E94430608950F93F1
:100CF0001F93CF93DF938B01880F880F880F805C41
:100D00000E944306C0E0D0E0F801EC0FFD1F808197
:100D10000E94A0052196C830D105B1F780E80E9455
:100D20004306DF91CF911F910F910895823040F4D7
:100D3000603130F48111605C862F80680E94430628
:100D400008950F931F9382E06FEF0E941D0580E0CE
:100D500060E041E00E94E20380E061E041E00E9447
:100D6000E20380E062E041E00E94E20384EF91E070
:100D700028EC30E0F9013197F1F70197D9F788E3D2
:100D80000E94430600ED17E0C8010197F1F78CE0DF
:100D90000E944306C8010197F1F781E00E944306D3
:100DA00080E797E10197F1F786E00E944306C801CA
:100DB0000197F1F71F910F910895CF93DF930E9450
:100DC00054030E94A10681E063E041E00E94E20337
:100DD00081E062E042E357E00E94D00081E063E0FE
:100DE0000E946F0080E06FE770E00E94160180E0D3
:100DF00060E00E946F000E94490080E00E9437017D
:100E0000C8ECD0E0809188008823E1F3109288003C
:100E10000E94730680E690E00E94300660919A007E
:100E200070919B0080E090E00E94CB0581E060E043
:100E30000E94960686E690E00E94300660919C0033
:100E400070919D0080E090E00E94CB0580E197E2E8
:100E5000FE013197F1F70197D9F781E063E00E9435
:100E60006F00D0CF80918F008F5F80938F00823092
:100E700079F0833029F1813009F042C00E945E0090
:100E800090938A008093890081E00E946200089517
:100E90000E945E0090938C0080938B0080E00E9403
:100EA000620080918B0090918C002091890030919C
:100EB0008A00821B930B90939D0080939C00089561
:100EC0000E945E0090938E0080938D0081E00E94CE
:100ED000620081E060E00E946F0080918D0090913F
:100EE0008E0020918B0030918C00821B930B90938D
:100EF0009B0080939A0010928F0081E0809388007D
:100F0000089597FB092E05260ED057FD04D014D066
:100F10000AD0001C38F450954095309521953F4FEC
:100F20004F4F5F4F0895F6F79095809570956195B6
:100F30007F4F8F4F9F4F0895A1E21A2EAA1BBB1B14
:100F4000FD010DC0AA1FBB1FEE1FFF1FA217B30795
:100F5000E407F50720F0A21BB30BE40BF50B661FAB
:100F6000771F881F991F1A9469F76095709580956F
:100F700090959B01AC01BD01CF010895F894FFCF7E
:0A0F80006F6E74203D0050543D00D8
:00000001FF
