:100000000C942A000C943F000C943F000C943F0089
:100010000C943F000C943F000C943F000C943F0064
:100020000C943F000C943F000C943F000C943F0054
:100030000C943F000C943F000C943F000C943F0044
:100040000C943F000C943F000C943F000C943F0034
:100050000C943F0011241FBECFE5D8E0DEBFCDBF1A
:1000600010E0A0E6B0E0EEEBF3E002C005900D92E8
:10007000AA36B107D9F70E94D4010C94DD010C9483
:1000800000004130B1F5813099F0813030F082309C
:10009000D1F0833009F067C021C02AB381E090E03D
:1000A00002C0880F991F6A95E2F7282B2ABB089592
:1000B00027B381E090E002C0880F991F6A95E2F7AC
:1000C000282B27BB089524B381E090E002C0880F5D
:1000D000991F6A95E2F7282B24BB089521B381E08C
:1000E00090E002C0880F991F6A95E2F7282B21BB88
:1000F00008954423C1F5813099F0813028F0823091
:10010000D9F0833081F524C02AB381E090E002C0A9
:10011000880F991F6A95E2F7809582238ABB08951C
:1001200027B381E090E002C0880F991F6A95E2F73B
:100130008095822387BB089524B381E090E002C0BC
:10014000880F991F6A95E2F78095822384BB0895F2
:1001500021B381E090E002C0880F991F6A95E2F711
:100160008095822381BB08954130B1F5813099F0AB
:10017000813030F08230D1F0833009F067C021C087
:100180002BB381E090E002C0880F991F6A95E2F7D7
:10019000282B2BBB089528B381E090E002C0880F84
:1001A000991F6A95E2F7282B28BB089525B381E0B3
:1001B00090E002C0880F991F6A95E2F7282B25BBB3
:1001C000089522B381E090E002C0880F991F6A95DC
:1001D000E2F7282B22BB08954423C1F5813099F022
:1001E000813028F08230D9F0833081F524C02BB3E0
:1001F00081E090E002C0880F991F6A95E2F7809530
:1002000082238BBB089528B381E090E002C0880F61
:10021000991F6A95E2F78095822388BB089525B3DC
:1002200081E090E002C0880F991F6A95E2F78095FF
:10023000822385BB089522B381E090E002C0880F3D
:10024000991F6A95E2F78095822382BB08958130D9
:1002500051F0813030F0823041F0833079F080E02D
:10026000089589B303C086B301C083B390E002C090
:10027000959587956A95E2F78170089580B390E02F
:1002800002C0959587956A95E2F78170089581304F
:1002900049F0813028F0823039F0833041F406C0D3
:1002A0006ABB089567BB089564BB089561BB089558
:1002B000813049F0813028F0823039F0833041F4C8
:1002C00006C06BBB089568BB089565BB089562BB0B
:1002D0000895813051F0813030F0823041F0833028
:1002E00041F080E008958BB3089588B3089585B3F5
:1002F000089582B3089582E06FEF0E945801089537
:100300008A3040F4E82FF0E0E05AFF4F82E060814D
:100310000E945801089582E06FEF0E9447010895FE
:10032000DF92EF92FF920F931F93CF93DF93DD2421
:10033000FF24EE24E394C0E2DEE480E06F2D40E091
:100340000E94B4000E2D14E080E0612F0E9427016E
:10035000882309F4D02E80E0612F0E942701882392
:10036000D1F3CE010197F1F71F5F0F5F183061F7EE
:1003700080E06F2D41E00E94B400F39484E0E80E29
:10038000F816D9F68D2DDF91CF911F910F91FF9027
:10039000EF90DF90089580E06FE00E94470180E0D9
:1003A0006FEF0E94580108950E948B010E94CB01BB
:0E03B0000E9490010E948001FBCFF894FFCFC5
:0A03BE003F065B4F666D7D477F6FC1
:00000001FF
