:100000000C942A000C9447000C9447000C94470071
:100010000C9447000C9447000C9447000C94470044
:100020000C9447000C9447000C9447000C94470034
:100030000C9447000C9447000C9447000C94470024
:100040000C948C020C9447000C9447000C944700CD
:100050000C94470011241FBECFE5D8E0DEBFCDBF12
:1000600010E0A0E6B0E0E4E1F9E002C005900D92F6
:10007000A836B107D9F710E0A8E6B0E001C01D929C
:10008000A037B107E1F70E9404040C9488040C9493
:1000900000008FB780688FBF08958FB78F778FBFAD
:1000A0000895813041F0813018F0823059F407C052
:1000B0008BB78F7B02C08BB78F778BBF08958BB7C1
:1000C0008F7D8BBF0895813029F1813020F08230FF
:1000D00009F04DC03EC0613071F0613030F06230E7
:1000E00069F0633009F043C00FC085B78E7F85BFCC
:1000F00085B782602CC085B7826008C085B78D7FC8
:1001000085BF85B78E7F23C085B78D7F85BF85B7B7
:1001100081601DC0613051F0613028F0623061F0C3
:10012000633029F50FC085B78B7F02C085B7846027
:1001300085BF85B788600BC085B78B7F85BF85B7C6
:10014000877F05C085B7877F85BF85B7846085BFFA
:100150000895623060F4662319F0613041F404C000
:1001600084B78F7B84BF089584B7806484BF08956B
:10017000813059F0813018F08230C1F40FC08BB754
:1001800080648BBF83E062E005C08BB780688BBF63
:1001900083E063E040E00E94D70008958BB780625F
:1001A0008BBF81E062E040E00E94D70008954130BB
:1001B000B1F5813099F0813030F08230D1F0833068
:1001C00009F067C021C02AB381E090E002C0880F27
:1001D000991F6A95E2F7282B2ABB089527B381E07F
:1001E00090E002C0880F991F6A95E2F7282B27BB81
:1001F000089524B381E090E002C0880F991F6A95AA
:10020000E2F7282B24BB089521B381E090E002C0DF
:10021000880F991F6A95E2F7282B21BB0895442384
:10022000C1F5813099F0813028F08230D9F08330E7
:1002300081F524C02AB381E090E002C0880F991FA5
:100240006A95E2F7809582238ABB089527B381E0FF
:1002500090E002C0880F991F6A95E2F7809582238B
:1002600087BB089524B381E090E002C0880F991FF6
:100270006A95E2F78095822384BB089521B381E0DB
:1002800090E002C0880F991F6A95E2F7809582235B
:1002900081BB08954130B1F5813099F0813030F063
:1002A0008230D1F0833009F067C021C02BB381E0E8
:1002B00090E002C0880F991F6A95E2F7282B2BBBAC
:1002C000089528B381E090E002C0880F991F6A95D5
:1002D000E2F7282B28BB089525B381E090E002C007
:1002E000880F991F6A95E2F7282B25BB089522B342
:1002F00081E090E002C0880F991F6A95E2F7282BF1
:1003000022BB08954423C1F5813099F0813028F053
:100310008230D9F0833081F524C02BB381E090E0A6
:1003200002C0880F991F6A95E2F7809582238BBBE4
:10033000089528B381E090E002C0880F991F6A9564
:10034000E2F78095822388BB089525B381E090E091
:1003500002C0880F991F6A95E2F78095822385BBBA
:10036000089522B381E090E002C0880F991F6A953A
:10037000E2F78095822382BB0895813091F081302D
:1003800028F08230C9F0833061F521C02BB381E0C1
:1003900090E002C0880F991F6A95E2F728272BBBCF
:1003A000089528B381E090E002C0880F991F6A95F4
:1003B000E2F7282728BB089525B381E090E002C02A
:1003C000880F991F6A95E2F7282725BB089522B365
:1003D00081E090E002C0880F991F6A95E2F7282714
:1003E00022BB0895813051F0813030F0823041F0ED
:1003F000833079F080E0089589B303C086B301C0EB
:1004000083B390E002C0959587956A95E2F7817075
:10041000089580B390E002C0959587956A95E2F7BC
:1004200081700895813049F0813028F0823039F0B0
:10043000833041F406C06ABB089567BB089564BB6E
:10044000089561BB0895813049F0813028F08230F1
:1004500039F0833041F406C06BBB089568BB089542
:1004600065BB089562BB0895813051F0813030F052
:10047000823041F0833041F080E008958BB30895DD
:1004800088B3089585B3089582B308953F983E9A3E
:100490003D9886B1887F836086B93598339A379ABC
:1004A000089597B18770907E892B87B9369A349BCF
:1004B000FECF349A24B135B1C901089597B1877040
:1004C000907E892B87B9369A089524B135B1C90138
:1004D000089586B182958F7080FF02C010926700E8
:1004E00080916700089590936D0080936C0008954B
:1004F00090936B0080936A00089550936D00409331
:100500006C0070936F0060936E0097B18770907E5F
:10051000892B87B9369A08951F920F920FB60F92C2
:1005200011242F933F934F935F936F937F938F93F8
:100530009F93AF93BF93EF93FF93E0916E00F09181
:100540006F00309721F084B195B1918380838091C1
:100550006C0090916D00892B39F084B195B1E091D8
:100560006A00F0916B00099510926700FF91EF917E
:10057000BF91AF919F918F917F916F915F914F91BB
:100580003F912F910F900FBE0F901F9018950F93D2
:100590001F93182F81E060E041E00E944A0181E052
:1005A00061E040E00E944A0183E0612F0E94230243
:1005B00081E062E041E00E944A0100ED17E0C801DD
:1005C0000197F1F781E062E040E00E944A01C80132
:1005D0000197F1F71F910F910895883010F40E9450
:1005E000C7020895AF92BF92CF92DF92EF92FF922F
:1005F0000F931F93DF93CF93CDB7DEB72C970FB632
:10060000F894DEBF0FBECDBF6B017C01FE013196B9
:100610008AE0DF011D928A95E9F710E05F011DC0B5
:10062000F501E10FF11DFC87EB87C701B6012AE058
:1006300030E040E050E00E944B04AB85BC856C93F9
:100640001F5FC701B6012AE030E040E050E00E94A1
:100650004B04C901DA016C017D011C141D041E0448
:100660001F04F4F2012F0150E02EFF24E7FCF09468
:10067000EA0CFB1C09C0F7018081805D0E94C70263
:1006800001500894E108F10807FFF5CF2C960FB64A
:10069000F894DEBF0FBECDBFCF91DF911F910F91B8
:1006A000FF90EF90DF90CF90BF90AF9008951F9391
:1006B000CF93DF93EC0110E003C00E94C7021F5FDD
:1006C000FE01E10FF11D80818823B9F7DF91CF9101
:1006D0001F9108950F931F93182F81E060E040E071
:1006E0000E944A0181E061E040E00E944A0183E00B
:1006F000612F0E94230281E062E041E00E944A01F2
:1007000000ED17E0C8010197F1F781E062E040E0F9
:100710000E944A01C8010197F1F71F910F910895B6
:10072000803119F40E946A030895843111F40E9403
:100730006A03089581E00E946A0308950F931F934E
:10074000CF93DF938B01880F880F880F805C0E9406
:100750006A03C0E0D0E0F801EC0FFD1F80810E9429
:10076000C7022196C830D105B1F780E80E946A031C
:10077000DF91CF911F910F910895823040F4603145
:1007800030F48111605C862F80680E946A030895AE
:100790000F931F9383E06FEF0E94120281E060E0ED
:1007A00041E00E94D70081E061E041E00E94D70073
:1007B00081E062E041E00E94D70084EF91E028EC04
:1007C00030E0F9013197F1F70197D9F788E30E94FA
:1007D0006A0300ED17E0C8010197F1F78CE00E9471
:1007E0006A03C8010197F1F781E00E946A0380E77C
:1007F00097E10197F1F786E00E946A03C80101972B
:10080000F1F71F910F9108950E94490086E194E04D
:100810000E9473020E9446020E94C80380E690E094
:100820000E94570380E00E945E02FFCF80E065E0F7
:100830000E94BD030E946502909369008093680046
:10084000209168003091690084EF91E0AC01249F11
:10085000C001259F900D349F900D1124892F992759
:1008600086958695909369008093680060916800F2
:100870007091690080E090E00E94F20280E197E2CE
:1008800028EC30E0F9013197F1F70197D9F780E0D2
:100890000E945E02089597FB092E05260ED057FD93
:1008A00004D014D00AD0001C38F4509540953095EF
:1008B00021953F4F4F4F5F4F0895F6F790958095E4
:1008C000709561957F4F8F4F9F4F0895A1E21A2E2B
:1008D000AA1BBB1BFD010DC0AA1FBB1FEE1FFF1FE4
:1008E000A217B307E407F50720F0A21BB30BE40B34
:1008F000F50B661F771F881F991F1A9469F760957B
:100900007095809590959B01AC01BD01CF01089534
:04091000F894FFCF89
:0809140054656D703D200001E7
:00000001FF
