:100000000C942A000C943F000C943F000C943F0089
:100010000C943F000C943F000C943F000C943F0064
:100020000C943F000C943F000C943F000C943F0054
:100030000C943F000C943F000C943F000C943F0044
:100040000C943F000C943F000C943F000C943F0034
:100050000C943F0011241FBECFE5D8E0DEBFCDBF1A
:1000600010E0A0E6B0E0E0E8F4E002C005900D92F8
:10007000A037B107D9F70E9409020C943E020C94F4
:1000800000004130B1F5813099F0813030F082309C
:10009000D1F0833009F067C021C02AB381E090E03D
:1000A00002C0880F991F6A95E2F7282B2ABB089592
:1000B00027B381E090E002C0880F991F6A95E2F7AC
:1000C000282B27BB089524B381E090E002C0880F5D
:1000D000991F6A95E2F7282B24BB089521B381E08C
:1000E00090E002C0880F991F6A95E2F7282B21BB88
:1000F00008954423C1F5813099F0813028F0823091
:10010000D9F0833081F524C02AB381E090E002C0A9
:10011000880F991F6A95E2F7809582238ABB08951C
:1001200027B381E090E002C0880F991F6A95E2F73B
:100130008095822387BB089524B381E090E002C0BC
:10014000880F991F6A95E2F78095822384BB0895F2
:1001500021B381E090E002C0880F991F6A95E2F711
:100160008095822381BB08954130B1F5813099F0AB
:10017000813030F08230D1F0833009F067C021C087
:100180002BB381E090E002C0880F991F6A95E2F7D7
:10019000282B2BBB089528B381E090E002C0880F84
:1001A000991F6A95E2F7282B28BB089525B381E0B3
:1001B00090E002C0880F991F6A95E2F7282B25BBB3
:1001C000089522B381E090E002C0880F991F6A95DC
:1001D000E2F7282B22BB08954423C1F5813099F022
:1001E000813028F08230D9F0833081F524C02BB3E0
:1001F00081E090E002C0880F991F6A95E2F7809530
:1002000082238BBB089528B381E090E002C0880F61
:10021000991F6A95E2F78095822388BB089525B3DC
:1002200081E090E002C0880F991F6A95E2F78095FF
:10023000822385BB089522B381E090E002C0880F3D
:10024000991F6A95E2F78095822382BB08958130D9
:1002500051F0813030F0823041F0833079F080E02D
:10026000089589B303C086B301C083B390E002C090
:10027000959587956A95E2F78170089580B390E02F
:1002800002C0959587956A95E2F78170089581304F
:1002900049F0813028F0823039F0833041F406C0D3
:1002A0006ABB089567BB089564BB089561BB089558
:1002B000813049F0813028F0823039F0833041F4C8
:1002C00006C06BBB089568BB089565BB089562BB0B
:1002D0000895813051F0813030F0823041F0833028
:1002E00041F080E008958BB3089588B3089585B3F5
:1002F000089582B3089508950895EF92FF920F93A1
:100300001F93CF93DF939C0143E0369527954A9541
:10031000E1F7022F0997B8F010E080EAE82E8FE0AD
:10032000F82E0CC080E069910E945801C701019726
:10033000F1F780E0C836D807A9F71F5F101718F447
:10034000C0E6D0E0EFCFDF91CF911F910F91FF90EA
:10035000EF900895EF92FF920F931F93CF93DF9347
:100360009C0163E0369527956A95E1F7022F09977E
:10037000C0F010E050EAE52E5FE0F52E0DC080E001
:1003800068810E945801C7010197F1F7219780E029
:10039000CF35D807A1F71F5F101718F4C7E6D0E0D4
:1003A000EECFDF91CF911F910F91FF90EF900895C5
:1003B00080E06FE00E944701089580E060E040E047
:1003C0000E94B40080E061E040E00E94B400089523
:1003D00080E060E040E00E94B40080E061E041E045
:1003E0000E94B400089580E060E041E00E94B40003
:1003F00080E061E040E00E94B400089580E060E0A9
:1004000041E00E94410080E061E041E00E94410043
:100410000895CF92DF92EF92FF920F931F93DF9395
:10042000CF93CDB7DEB728970FB6F894DEBF0FBED7
:10043000CDBFDE011196E8E6F0E088E001900D9274
:100440008150E1F76FE00E94470199E0C92ED12C5D
:10045000CC0EDD1E80EAE82E8FE0F82E0DC080E085
:10046000F80160810E945801C7010197F1F701501E
:1004700010400C171D0799F78601F1CFF894FFCFB4
:100480000901030206040C080901030206040C0812
:00000001FF
