:100000000C942A000C943C000C943C000C943C0092
:100010000C944F030C94FE020C94A0030C943C002F
:100020000C943C000C943C000C94AD020C945C02CB
:100030000C943C000C943C000C943C000C943C0050
:100040000C9408060C943C000C943C000C943C006E
:100050000C943C0011241FBECFE5D8E0DEBFCDBF1D
:1000600010E0A0E6B0E001C01D92A838B107E1F7AA
:100070000E946C070C94C4070C940000539A549A85
:100080008AB18F718AB983E389B908955D9BFECFE8
:100090008CB908955F9BFECF8CB1089520E004C019
:1000A0005D9BFECFECB92F5FFC01E20FF11DE081FB
:1000B000EE23B1F70895AF92BF92CF92DF92EF9205
:1000C000FF920F93DF93CF93CDB7DEB72C970FB688
:1000D000F894DEBF0FBECDBF6B017C01FE013196EF
:1000E0008AE0DF011D928A95E9F700E05F011DC0FB
:1000F000F501E00FF11DFC87EB87C701B6012AE08F
:1001000030E040E050E00E948707AB85BC856C93EF
:100110000F5FC701B6012AE030E040E050E00E94E6
:100120008707C901DA016C017D011C141D041E043E
:100130001F04F4F2902F9150E92FFF27E7FDF0956F
:10014000EA0DFB1D07C080815D9BFECF805D8CB9F1
:100150009150319797FFF7CF2C960FB6F894DEBFEA
:100160000FBECDBFCF91DF910F91FF90EF90DF9049
:10017000CF90BF90AF90089583B7886083BF83B757
:10018000806483BF83B78F7E83BF83B7806283BF62
:1001900080E88FBD82E48EBD81E792E097BD86BD89
:1001A000089526B537B5C9010895882319F081301F
:1001B00041F404C08EB58F7B8EBD08958EB58064EA
:1001C0008EBD08958130E9F0813020F0823009F051
:1001D00059C041C0613049F0613020F0623009F00F
:1001E00051C009C089B78E7F02C089B7816089BFBD
:1001F00089B78D7F3FC089B78E7F89BF89B78260FD
:1002000039C0613051F0613028F0623091F06330D4
:10021000C9F51BC089B78F7D1AC089B78F7D89BF8B
:1002200089B78F7E89BF89B7877F89BF89B7846087
:1002300021C089B78F7D89BF89B7806189BF89B7A0
:10024000877F89BF89B78B7F15C089B7806289BFD7
:1002500089B78F7EF3CF613041F0613018F06230A2
:1002600089F40AC089B78F7B02C089B7806489BFCF
:1002700089B78F7789BF089589B78F7B89BF89B781
:10028000806889BF0895813099F0813018F08230FC
:1002900089F523C0662329F45093710040937000C0
:1002A0000895613039F550937300409372000895BA
:1002B000662329F4509379004093780008956130C3
:1002C00029F450937B0040937A000895623091F4B2
:1002D00050937D0040937C000895662329F4509349
:1002E0007500409374000895613021F450937700B5
:1002F000409376000895813039F0813018F08230D3
:1003000039F405C062BF08957DBD6CBD089564BD1C
:100310000895813039F0813018F0823039F405C009
:100320006CBF08957BBD6ABD089563BD089581309B
:1003300049F0813028F0823041F020E030E008C000
:1003400082B704C02CB53DB503C084B5282F30E07A
:10035000C9010895813051F0813018F0823079F46C
:100360000AC083B7887F826083BF08958EB5887F77
:1003700082608EBD089585B5887F826085BD0895B1
:100380008130D9F0813020F0823009F043C02CC098
:10039000CB01A0E0B0E08093820090938300A09313
:1003A0008400B0938500309373002093720080E046
:1003B000BA010E94890180E014C0CB01A0E0B0E046
:1003C0008093820090938300A0938400B093850073
:1003D00030937B0020937A0081E0BA010E9489016A
:1003E00081E00E94AA010895CB01A0E0B0E08093D3
:1003F0007E0090937F00A0938000B09381003093A3
:1004000077002093760082E0BA010E94890182E0A1
:100410000E94AA0108958130B1F0813018F0823035
:10042000B9F524C0CB01A0E0B0E0809382009093A6
:100430008300A0938400B093850050937100409393
:10044000700080E010C0CB01A0E0B0E0809382009B
:1004500090938300A0938400B0938500509379001B
:100460004093780081E00E94AA010895CB01A0E0AA
:10047000B0E080937E0090937F00A0938000B093C3
:100480008100509375004093740082E00E94AA019D
:100490000895813049F0813018F0823061F408C04D
:1004A00083B7887F83BF089583B7887F8EBD089503
:1004B00085B5887F85BD08951F920F920FB60F9264
:1004C00011242F933F934F935F936F937F938F9359
:1004D0009F93AF93BF93EF93FF9380916C009091A4
:1004E0006D00A0916E00B0916F000196A11DB11D2D
:1004F00080936C0090936D00A0936E00B0936F009A
:1005000020918200309183004091840050918500B9
:1005100082179307A407B50779F4E0917000F09172
:100520007100309749F0099510926C0010926D009F
:1005300010926E0010926F00FF91EF91BF91AF91FA
:100540009F918F917F916F915F914F913F912F91EB
:100550000F900FBE0F901F9018951F920F920FB61D
:100560000F9211242F933F934F935F936F937F9339
:100570008F939F93AF93BF93EF93FF938091680006
:1005800090916900A0916A00B0916B000196A11D45
:10059000B11D8093680090936900A0936A00B093A6
:1005A0006B00209182003091830040918400509133
:1005B000850082179307A407B50779F4E0917200CC
:1005C000F0917300309749F00995109268001092ED
:1005D000690010926A0010926B00FF91EF91BF9139
:1005E000AF919F918F917F916F915F914F913F91CB
:1005F0002F910F900FBE0F901F9018951F920F9282
:100600000FB60F9211242F933F934F935F936F93E5
:100610007F938F939F93AF93BF93EF93FF938091BB
:10062000640090916500A0916600B091670001960A
:10063000A11DB11D8093640090936500A093660096
:10064000B093670020917E0030917F004091800040
:100650005091810082179307A407B50779F4E091C0
:100660007400F0917500309749F00995109264007C
:10067000109265001092660010926700FF91EF9152
:10068000BF91AF919F918F917F916F915F914F91AA
:100690003F912F910F900FBE0F901F9018951F92B2
:1006A0000F920FB60F9211242F933F934F935F93A6
:1006B0006F937F938F939F93AF93BF93EF93FF932A
:1006C0008091600090916100A0916200B091630000
:1006D0000196A11DB11D8093600090936100A093CD
:1006E0006200B093630020917E0030917F004091C2
:1006F00080005091810082179307A407B50779F411
:10070000E0917600F0917700309749F009951092CA
:100710006000109261001092620010926300FF91DD
:10072000EF91BF91AF919F918F917F916F915F9169
:100730004F913F912F910F900FBE0F901F901895E2
:100740001F920F920FB60F9211242F933F934F9346
:100750005F936F937F938F939F93AF93BF93EF9329
:10076000FF93E0917C00F0917D000995FF91EF915E
:10077000BF91AF919F918F917F916F915F914F91B9
:100780003F912F910F900FBE0F901F9018958FB92A
:10079000779BFECF8FB1089581E065E041E00E9434
:1007A000710481E067E041E00E94710481E066E04D
:1007B00040E00E94710481E066E041E00E94710423
:1007C0008EE58DB908958FB780688FBF08958FB774
:1007D0008F778FBF0895813041F0813018F08230DB
:1007E00059F407C08BB78F7B02C08BB78F778BBF55
:1007F00008958BB78F7D8BBF0895813029F18130AB
:1008000020F0823009F04DC03EC0613071F061309F
:1008100030F0623069F0633009F043C00FC085B733
:100820008E7F85BF85B782602CC085B7826008C087
:1008300085B78D7F85BF85B78E7F23C085B78D7FB8
:1008400085BF85B781601DC0613051F0613028F0EF
:10085000623061F0633029F50FC085B78B7F02C02D
:1008600085B7846085BF85B788600BC085B78B7FEF
:1008700085BF85B7877F05C085B7877F85BF85B76B
:10088000846085BF0895623060F4662319F061309A
:1008900041F404C084B78F7B84BF089584B780641B
:1008A00084BF0895813059F0813018F08230C1F44E
:1008B0000FC08BB780648BBF83E062E005C08BB74D
:1008C00080688BBF83E063E040E00E94710408957C
:1008D0008BB780628BBF81E062E040E00E947104D0
:1008E00008954130B1F5813099F0813030F0823097
:1008F000D1F0833009F067C021C02AB381E090E0D5
:1009000002C0880F991F6A95E2F7282B2ABB089529
:1009100027B381E090E002C0880F991F6A95E2F743
:10092000282B27BB089524B381E090E002C0880FF4
:10093000991F6A95E2F7282B24BB089521B381E023
:1009400090E002C0880F991F6A95E2F7282B21BB1F
:1009500008954423C1F5813099F0813028F0823028
:10096000D9F0833081F524C02AB381E090E002C041
:10097000880F991F6A95E2F7809582238ABB0895B4
:1009800027B381E090E002C0880F991F6A95E2F7D3
:100990008095822387BB089524B381E090E002C054
:1009A000880F991F6A95E2F78095822384BB08958A
:1009B00021B381E090E002C0880F991F6A95E2F7A9
:1009C0008095822381BB08954130B1F5813099F043
:1009D000813030F08230D1F0833009F067C021C01F
:1009E0002BB381E090E002C0880F991F6A95E2F76F
:1009F000282B2BBB089528B381E090E002C0880F1C
:100A0000991F6A95E2F7282B28BB089525B381E04A
:100A100090E002C0880F991F6A95E2F7282B25BB4A
:100A2000089522B381E090E002C0880F991F6A9573
:100A3000E2F7282B22BB08954423C1F5813099F0B9
:100A4000813028F08230D9F0833081F524C02BB377
:100A500081E090E002C0880F991F6A95E2F78095C7
:100A600082238BBB089528B381E090E002C0880FF9
:100A7000991F6A95E2F78095822388BB089525B374
:100A800081E090E002C0880F991F6A95E2F7809597
:100A9000822385BB089522B381E090E002C0880FD5
:100AA000991F6A95E2F78095822382BB0895813071
:100AB00091F0813028F08230C9F0833061F521C097
:100AC0002BB381E090E002C0880F991F6A95E2F78E
:100AD00028272BBB089528B381E090E002C0880F3F
:100AE000991F6A95E2F7282728BB089525B381E06E
:100AF00090E002C0880F991F6A95E2F7282725BB6E
:100B0000089522B381E090E002C0880F991F6A9592
:100B1000E2F7282722BB0895813051F0813030F070
:100B2000823041F0833079F080E0089589B303C0CA
:100B300086B301C083B390E002C0959587956A950E
:100B4000E2F78170089580B390E002C09595879593
:100B50006A95E2F781700895813049F0813028F07C
:100B6000823039F0833041F406C06ABB089567BB18
:100B7000089564BB089561BB0895813049F08130C8
:100B800028F0823039F0833041F406C06BBB089501
:100B900068BB089565BB089562BB0895813051F02C
:100BA000813030F0823041F0833041F080E00895B0
:100BB0008BB3089588B3089585B3089582B30895DB
:100BC0003F983E9A3D9886B1887F836086B9359874
:100BD000339A379A089597B18770907E892B87B999
:100BE000369A349BFECF349A24B135B1C9010895A9
:100BF00097B18770907E892B87B9369A089524B172
:100C000035B1C901089590938700809386000895B7
:100C10001F920F920FB60F9211242F933F934F9371
:100C20005F936F937F938F939F93AF93BF93EF9354
:100C3000FF93E0918600F09187000995FF91EF9175
:100C4000BF91AF919F918F917F916F915F914F91E4
:100C50003F912F910F900FBE0F901F9018950F93FB
:100C60001F93182F80E060E041E00E94E40480E0E0
:100C700061E040E00E94E40482E0612F0E94BD0533
:100C800080E062E041E00E94E40400ED17E0C8016A
:100C90000197F1F780E062E040E00E94E404C801BF
:100CA0000197F1F71F910F910895883010F40E9479
:100CB0002F060895AF92BF92CF92DF92EF92FF92EC
:100CC0000F931F93DF93CF93CDB7DEB72C970FB65B
:100CD000F894DEBF0FBECDBF6B017C01FE013196E3
:100CE0008AE0DF011D928A95E9F710E05F011DC0DF
:100CF000F501E10FF11DFC87EB87C701B6012AE082
:100D000030E040E050E00E948707AB85BC856C93E3
:100D10001F5FC701B6012AE030E040E050E00E94CA
:100D20008707C901DA016C017D011C141D041E0432
:100D30001F04F4F2012F0150E02EFF24E7FCF09491
:100D4000EA0CFB1C09C0F7018081805D0E942F0620
:100D500001500894E108F10807FFF5CF2C960FB673
:100D6000F894DEBF0FBECDBFCF91DF911F910F91E1
:100D7000FF90EF90DF90CF90BF90AF9008951F93BA
:100D8000CF93DF93EC0110E003C00E942F061F5F9A
:100D9000FE01E10FF11D80818823B9F7DF91CF912A
:100DA0001F9108950F931F93182F80E060E040E09B
:100DB0000E94E40480E061E040E00E94E40482E0FC
:100DC000612F0E94BD0580E062E041E00E94E404E2
:100DD00000ED17E0C8010197F1F780E062E040E024
:100DE0000E94E404C8010197F1F71F910F91089543
:100DF000803119F40E94D2060895843111F40E94C2
:100E0000D206089581E00E94D20608950F931F93A1
:100E1000CF93DF938B01880F880F880F805C0E942F
:100E2000D206C0E0D0E0F801EC0FFD1F80810E94E7
:100E30002F062196C830D105B1F780E80E94D2066E
:100E4000DF91CF911F910F910895823040F460316E
:100E500030F48111605C862F80680E94D20608956C
:100E60000F931F9382E06FEF0E94AC0580E060E07B
:100E700041E00E94710480E061E041E00E94710461
:100E800080E062E041E00E94710484EF91E028EC90
:100E900030E0F9013197F1F70197D9F788E30E9423
:100EA000D20600ED17E0C8010197F1F78CE00E942F
:100EB000D206C8010197F1F781E00E94D20680E7CF
:100EC00097E10197F1F786E00E94D206C8010197E9
:100ED000F1F71F910F9108950E94CC0380E060E02C
:100EE00041E00E94710480E29EE428EC30E0F901C8
:100EF0003197F1F70197D9F78DE40E94C7038D343C
:100F000029F480E060E041E00E94E404FFCF97FB19
:100F1000092E05260ED057FD04D014D00AD0001C8F
:100F200038F450954095309521953F4F4F4F5F4F86
:100F30000895F6F790958095709561957F4F8F4F46
:100F40009F4F0895A1E21A2EAA1BBB1BFD010DC0E5
:100F5000AA1FBB1FEE1FFF1FA217B307E407F50769
:100F600020F0A21BB30BE40BF50B661F771F881F45
:100F7000991F1A9469F760957095809590959B01DB
:0C0F8000AC01BD01CF010895F894FFCF33
:00000001FF
